:100000000C9462000C948A000C948A000C948A0070
:100010000C948A000C948A000C948A000C948A0038
:100020000C948A000C948A000C948A000C948A0028
:100030000C948A000C948A000C948A000C948A0018
:100040000C94A2020C948A000C9412030C94EC02FF
:100050000C948A000C948A000C948A000C948A00F8
:100060000C948A000C948A000000000024002700F1
:100070002A000000000023002600290000000000E4
:10008000250028002B0004040404040404040202D4
:100090000202020203030303030301020408102007
:1000A0004080010204081020010204081020000012
:1000B0000008000201000003040700000000000027
:1000C00000001C0511241FBECFEFD8E0DEBFCDBF5E
:1000D00011E0A0E0B1E0E0EFFAE002C005900D927F
:1000E000AE36B107D9F722E0AEE6B1E001C01D920D
:1000F000A432B207E1F710E0C2E6D0E004C02197D5
:10010000FE010E946B05C136D107C9F70E94440366
:100110000C9476050C940000833081F028F4813033
:1001200099F08230A1F008958730A9F08830B9F0B5
:100130008430D1F4809180008F7D03C08091800055
:100140008F7780938000089584B58F7702C084B53F
:100150008F7D84BD08958091B0008F7703C080911A
:10016000B0008F7D8093B00008951F93CF93DF93ED
:10017000282F30E0F901E255FF4F8491F901E6564E
:10018000FF4FD491F901EA57FF4FC491CC23C1F03E
:10019000162F81110E948C00EC2FF0E0EE0FFF1F54
:1001A000E458FF4FA591B4919FB7F894111104C082
:1001B0008C91D095D82302C0EC91DE2BDC939FBFAD
:1001C000DF91CF911F9108953FB7F89480918301FB
:1001D00090918401A0918501B091860126B5A89BDC
:1001E00005C02F3F19F00196A11DB11D3FBFBA2FC9
:1001F000A92F982F8827820F911DA11DB11DBC0129
:10020000CD0142E0660F771F881F991F4A95D1F7ED
:100210000895CF92DF92EF92FF920F931F93CF93A7
:10022000DF936C017A018B01C0E0D0E0CE15DF05D1
:1002300081F0D8016D918D01D601ED91FC91019075
:10024000F081E02DC6010995892B11F02196EECFA2
:100250007E01C701DF91CF911F910F91FF90EF9029
:10026000DF90CF900895089580E090E00895FC011C
:10027000538D448D252F30E0842F90E0821B930B0B
:10028000541710F0CF96089501970895FC01918DB1
:10029000828D981761F0828DDF01A80FB11D5D96E8
:1002A0008C91928D9F5F9F73928F90E008958FEF56
:1002B0009FEF0895FC01918D828D981731F0828D0A
:1002C000E80FF11D858D90E008958FEF9FEF089561
:1002D000FC01918D228D892F90E0805C9F4F821BC5
:1002E00091098F739927089587E891E00E9468012A
:1002F00021E0892B09F420E0822F0895FC01848DF0
:10030000DF01A80FB11DA35ABF4F2C91848D90E03F
:1003100001968F739927848FA689B7892C93A0891A
:10032000B1898C91837080648C93938D848D9813A4
:1003300006C00288F389E02D80818F7D8083089537
:10034000EF92FF920F931F93CF93DF93EC0181E025
:10035000888F9B8D8C8D981305C0E889F9898081E1
:1003600085FD26C0F62E0B8D10E00F5F1F4F0F731B
:100370001127E02E8C8DE8120CC00FB607FCFACFC7
:10038000E889F989808185FFF5CFCE010E947E0141
:10039000F1CF8B8DFE01E80FF11DE35AFF4FF08284
:1003A0009FB7F8940B8FEA89FB89808180620AC02D
:1003B0009FB7F894EE89FF896083E889F989808185
:1003C0008370806480839FBF81E090E0DF91CF9154
:1003D0001F910F91FF90EF900895CF93DF93EC0161
:1003E000888D8823C9F0EA89FB89808185FD05C055
:1003F000A889B9898C9186FD0FC00FB607FCF5CF8F
:10040000808185FFF2CFA889B9898C9185FFEDCFD6
:10041000CE010E947E01E7CFDF91CF91089580E069
:1004200090E0892B29F00E94740181110C94000046
:100430000895009769F0FC0101900020E9F73197D9
:10044000AF01481B590BBC0187E891E00C940901EE
:1004500080E090E008958F929F92AF92BF92CF92EA
:10046000DF92EF92FF920F931F93CF93DF93CDB75D
:10047000DEB7A1970FB6F894DEBF0FBECDBF6C01FB
:10048000990FEE08FF08F7FE2BC06DE287E891E0B8
:100490000E94A0018C0122273327A9012C193D09B4
:1004A0004E095F0919A2CE0181967C019AE0892E3E
:1004B000912CA12CB12CCA01B901A50194010E9473
:1004C0004905605DF70162937F0121153105410502
:1004D000510589F7CF010E941902800F911F1DC09D
:1004E000A701960119A28E010F5D1F4F8AE0C82E49
:1004F000D12CE12CF12CCA01B901A70196010E946F
:100500004905605DF80162938F01211531054105B0
:10051000510589F7CF010E941902A1960FB6F894F0
:10052000DEBF0FBECDBFDF91CF911F910F91FF9026
:10053000EF90DF90CF90BF90AF909F908F900895F5
:100540000E9471051F920F920FB60F9211242F93E4
:100550003F938F939F93AF93BF9380917F0190912F
:100560008001A0918101B091820130917E0123E050
:10057000230F2D3720F40196A11DB11D05C026E8DB
:10058000230F0296A11DB11D20937E0180937F0150
:1005900090938001A0938101B093820180918301A7
:1005A00090918401A0918501B09186010196A11DD1
:1005B000B11D8093830190938401A0938501B09332
:1005C0008601BF91AF919F918F913F912F910F9095
:1005D0000FBE0F901F9018951F920F920FB60F929B
:1005E00011242F933F934F935F936F937F938F9338
:1005F0009F93AF93BF93EF93FF9387E891E00E949F
:100600007E01FF91EF91BF91AF919F918F917F916B
:100610006F915F914F913F912F910F900FBE0F906F
:100620001F9018951F920F920FB60F9211242F93BF
:100630008F939F93EF93FF93E0919701F09198012F
:100640008081E0919D01F0919E0182FD12C0908118
:100650008091A0018F5F8F732091A101821751F0CB
:10066000E091A001F0E0E957FE4F958F8093A00143
:1006700001C08081FF91EF919F918F912F910F90F9
:100680000FBE0F901F901895789484B5826084BD3A
:1006900084B5816084BD85B5826085BD85B5816086
:1006A00085BD80916E00816080936E001092810004
:1006B00080918100826080938100809181008160BF
:1006C0008093810080918000816080938000809180
:1006D000B10084608093B1008091B000816080930C
:1006E000B00080917A00846080937A0080917A00D3
:1006F000826080937A0080917A00816080937A0092
:1007000080917A00806880937A001092C100E09115
:100710009701F091980182E08083E0919301F0913C
:1007200094011082E0919501F09196018FEC808305
:1007300010929F01E0919B01F0919C0186E08083E3
:10074000E0919901F0919A01808180618083E0912C
:100750009901F0919A01808188608083E0919901EC
:10076000F0919A01808180688083E0919901F091F5
:100770009A0180818F7D8083E7EAF0E02491E3E9AC
:10078000F0E08491882399F090E0880F991FFC0194
:10079000E859FF4FA591B491FC01E458FF4F8591B2
:1007A00094918FB7F894EC91E22BEC938FBF0DE905
:1007B00010E0F801249149E8A42E40E0B42EF501A0
:1007C00084918823C1F090E0880F991FFC01E859BB
:1007D000FF4FC591D491FC01E458FF4FA591B4910E
:1007E0003FB7F8949881822F8095982398838C91B5
:1007F000822B8C933FBF60E08DE00E94B50081E0CA
:1008000090E090937D0180937C0110927B01109287
:100810007A0110926F0110926E0121EB822E20E07E
:10082000922EC1E0D0E00E94E4002B013C019AE04E
:10083000C92ED12CE12CF12C0E94E400DC01CB016B
:1008400084199509A609B709883E9340A105B10509
:1008500098F3F1E0CF1AD108E108F10828EE420E32
:1008600023E0521E611C711CC114D104E104F10487
:1008700019F7F4018491F801E490F501F490FF2058
:10088000A1F081110E948C00EF2DF0E0EE0FFF1F10
:10089000EE58FF4FA591B4918C918E2121E090E00C
:1008A00009F420E0E22EF92E02C0E12CF12C809117
:1008B0007C0190917D018E159F0551F00E942B02C5
:1008C00082E191E00E941902C7010E942B02ADC093
:1008D000E114F10421F580917A0190917B010A964F
:1008E00090937B0180937A01893E93409CF087E14D
:1008F00091E00E9419028091780190917901892BF1
:1009000029F0D0937701C093760104C0109277014B
:1009100010927601109275011092740135C0C0904A
:100920007601D090770121E0C216D10409F58091BB
:100930007401909175019C01265F3F4F30937501C2
:1009400020937401875C9740873E934048F48CE283
:1009500091E00E941902D0927301C092720108C006
:10096000109273011092720181E491E00E941902C9
:1009700010927B0110927A01109271011092700115
:10098000D0937901C093780180917A0190917B0195
:10099000893E93400CF449C080917001909171019F
:1009A000019709F442C080916E0190916F01892BEB
:1009B000C1F480917201909173018130910569F5C4
:1009C00090936F0180936E0161E08DE00E94B5000D
:1009D00088E591E00E94190280E691E00E941902E8
:1009E00014C010926F0110926E0160E08DE00E94C1
:1009F000B50083E691E00E94190280E691E00E9432
:100A000019021092770110927601109273011092E0
:100A10007201109279011092780110927B0110926C
:100A20007A01D0937101C0937001F0927D01E09240
:100A30007C010E940F02F7CEE7E8F1E013821282F8
:100A400088EE93E0A0E0B0E084839583A683B7832B
:100A500084E091E09183808385EC90E095878487A2
:100A600084EC90E09787868780EC90E0918B808B78
:100A700081EC90E0938B828B82EC90E0958B848B61
:100A800086EC90E0978B868B118E128E138E148ECF
:100A90000895A1E21A2EAA1BBB1BFD010DC0AA1FBF
:100AA000BB1FEE1FFF1FA217B307E407F50720F0D7
:100AB000A21BB30BE40BF50B661F771F881F991F52
:100AC0001A9469F760957095809590959B01AC019B
:100AD000BD01CF010895EE0FFF1F0590F491E02DA9
:100AE000099481E090E0F8940C947605F894FFCF97
:100AF00000000000A00109013701ED016801460175
:100B00005A015F746F5F00636F6E646974696F6E22
:100B1000203120766572696669657200636F6E6464
:100B20006974696F6E2032207665726966696572D4
:100B300000636F6E646974696F6E20322064657340
:100B40006163746976C3A9002E2E2E2E2E6F6E005F
:0E0B50000D0A002E2E2E2E2E2E2E6F66660003
:107800000C94343C0C94513C0C94513C0C94513CE1
:107810000C94513C0C94513C0C94513C0C94513CB4
:107820000C94513C0C94513C0C94513C0C94513CA4
:107830000C94513C0C94513C0C94513C0C94513C94
:107840000C94513C0C94513C0C94513C0C94513C84
:107850000C94513C0C94513C0C94513C0C94513C74
:107860000C94513C0C94513C11241FBECFEFD8E036
:10787000DEBFCDBF11E0A0E0B1E0ECE9FFE702C060
:1078800005900D92A230B107D9F712E0A2E0B1E065
:1078900001C01D92AD30B107E1F70E942D3D0C945F
:1078A000CC3F0C94003C982F959595959595959582
:1078B000905D8F708A307CF0282F295A8091C0000B
:1078C00085FFFCCF9093C6008091C00085FFFCCF60
:1078D0002093C6000895282F205DF0CF982F809127
:1078E000C00085FFFCCF9093C6000895EF92FF92F1
:1078F0000F931F93EE24FF2487018091C00087FD22
:1079000017C00894E11CF11C011D111D81E4E8164B
:1079100082E4F8068FE0080780E0180770F3E09132
:107920000401F091050109958091C00087FFE9CF1E
:107930008091C6001F910F91FF90EF9008950E94D3
:10794000763C982F8091C00085FFFCCF9093C600B5
:1079500091362CF490330CF09053892F089597555D
:10796000892F08951F930E949F3C182F0E949F3CCF
:107970001295107F810F1F9108951F93182F882350
:1079800021F00E94763C1150E1F71F9108951F935A
:10799000182F0E94763C803249F0809103018F5F5E
:1079A000809303018530C1F01F9108958091C0003C
:1079B00085FFFCCF84E18093C6008091C00085FFE5
:1079C000FCCF1093C6008091C00085FFFCCF80E102
:1079D0008093C6001F910895E0910401F091050184
:1079E00009951F9108950E94763C803241F0809164
:1079F00003018F5F80930301853081F008958091AA
:107A0000C00085FFFCCF84E18093C6008091C00058
:107A100085FFFCCF80E18093C6000895E0910401CA
:107A2000F09105010995089540E951E08823A1F0FE
:107A30002D9A28EE33E0FA013197F1F721503040CA
:107A4000D1F72D9828EE33E0FA013197F1F7215064
:107A50003040D1F7815061F708953F924F925F9285
:107A60006F927F928F929F92AF92BF92CF92DF924E
:107A7000EF92FF920F931F93CF93DF93000080E16B
:107A80008093C4001092C50088E18093C10086E015
:107A90008093C2005098589A259A81E00E94143D24
:107AA00024E1F22E9EE1E92E85E9D82E0FE0C02ECA
:107AB00010E1B12EAA24A394B1E49B2EA6E58A2E50
:107AC000F2E57F2EE0E26E2E79E4572E63E5462E36
:107AD00050E5352E0E94763C8033B1F18133B9F107
:107AE000803409F46FC0813409F476C0823409F41B
:107AF00085C0853409F488C0803531F1823521F1A3
:107B0000813511F1853509F485C0863509F48DC0BC
:107B1000843609F496C0843709F403C1853709F423
:107B200072C1863709F466C0809103018F5F80932C
:107B30000301853079F6E0910401F0910501099582
:107B40000E94763C803351F60E94F33CC3CF0E94E2
:107B5000763C803249F78091C00085FFFCCFF092DF
:107B6000C6008091C00085FFFCCF9092C600809136
:107B7000C00085FFFCCF8092C6008091C00085FFC9
:107B8000FCCF7092C6008091C00085FFFCCF609250
:107B9000C6008091C00085FFFCCF5092C600809146
:107BA000C00085FFFCCF4092C6008091C00085FFD9
:107BB000FCCF3092C6008091C00085FFFCCFB09210
:107BC000C60088CF0E94763C863808F4BDCF0E945C
:107BD000763C0E94F33C7ECF0E94763C803809F4CC
:107BE0009CC0813809F40BC1823809F43CC1883942
:107BF00009F48FC080E00E94C73C6CCF84E10E94F2
:107C0000BD3C0E94F33C66CF85E00E94BD3C0E94D3
:107C1000F33C60CF0E94763C809306010E94763C44
:107C2000809307010E94F33C55CF0E94763C80333D
:107C300009F41DC183E00E94BD3C80E00E94C73C66
:107C400049CF0E94763C809309020E94763C809343
:107C5000080280910C028E7F80930C020E94763C79
:107C6000853409F415C18091080290910902892B8D
:107C700089F000E010E00E94763CF801E85FFE4FDA
:107C800080830F5F1F4F80910802909109020817AF
:107C9000190788F30E94763C803209F045CF809125
:107CA0000C0280FF01C16091060170910701660F0F
:107CB000771F7093070160930601A0910802B091AD
:107CC00009021097C9F0E8E0F1E09B01AD014E0F09
:107CD0005F1FF999FECF32BD21BD819180BDFA9A17
:107CE000F99A2F5F3F4FE417F50799F76A0F7B1F4B
:107CF00070930701609306018091C00085FFFCCF5F
:107D0000F092C6008091C00085FFFCCFB092C60003
:107D1000E1CE83E00E94C73CDDCE82E00E94C73CFA
:107D2000D9CE0E94763C809309020E94763C8093D3
:107D300008028091060190910701880F991F909386
:107D40000701809306010E94763C853409F4A6C0A1
:107D500080910C028E7F80930C020E94763C8032D0
:107D600009F0B8CE8091C00085FFFCCFF092C6002C
:107D7000609108027091090261157105B9F140E046
:107D800050E080910C02A82FA170B82FB27011C0E2
:107D9000BB2309F45CC0E0910601F0910701319624
:107DA000F0930701E09306014F5F5F4F46175707B7
:107DB000E8F4AA2369F3F999FECF209106013091E6
:107DC000070132BD21BDF89A90B58091C00085FFB2
:107DD000FCCF9093C6002F5F3F4F30930701209355
:107DE00006014F5F5F4F4617570718F38091C00099
:107DF00085FDE5CE8091C00085FFF8CFE0CE81E023
:107E00000E94C73C67CE0E94763C803209F08CCE3F
:107E10008091C00085FFFCCFF092C6008091C00029
:107E200085FFFCCFE092C6008091C00085FFFCCFAB
:107E3000D092C6008091C00085FFFCCFC092C600E2
:107E40008091C00085FFFCCFB092C60043CEE09188
:107E50000601F091070194918091C00085FFFCCF4D
:107E60009093C6009CCF80E10E94C73C33CE0E9415
:107E7000763C0E94763C182F0E94763C112309F430
:107E800083C0113009F484C08FE00E94C73C22CE29
:107E900080910C02816080930C02E5CE80910C02EF
:107EA000816080930C0259CF809107018823880F4D
:107EB000880B8A2180930B02809106019091070123
:107EC000880F991F90930701809306018091080203
:107ED00080FF09C080910802909109020196909359
:107EE000090280930802F894F999FECF1127E091D6
:107EF0000601F0910701C8E0D1E08091080290915D
:107F00000902103091F40091570001700130D9F34B
:107F100003E000935700E89500915700017001308D
:107F2000D9F301E100935700E89509901990009169
:107F3000570001700130D9F301E000935700E89534
:107F40001395103498F011270091570001700130FB
:107F5000D9F305E000935700E895009157000170B0
:107F60000130D9F301E100935700E895329602976A
:107F700009F0C7CF103011F00296E5CF112480919F
:107F8000C00085FFB9CEBCCE8EE10E94C73CA2CD19
:0C7F900085E90E94C73C9ECDF894FFCF0D
:027F9C00800063
:040000030000780081
:00000001FF
