:100000000C9462000C948A000C948A000C948A0070
:100010000C948A000C948A000C948A000C948A0038
:100020000C948A000C948A000C948A000C948A0028
:100030000C948A000C948A000C948A000C948A0018
:100040000C948F020C948A000C94FF020C94D90239
:100050000C948A000C948A000C948A000C948A00F8
:100060000C948A000C948A000000000024002700F1
:100070002A000000000023002600290000000000E4
:10008000250028002B0004040404040404040202D4
:100090000202020203030303030301020408102007
:1000A0004080010204081020010204081020000012
:1000B0000008000201000003040700000000000027
:1000C00000002A0511241FBECFEFD8E0DEBFCDBF50
:1000D00011E0A0E0B1E0ECE0FBE002C005900D9281
:1000E000A033B107D9F721E0A0E3B1E001C01D9230
:1000F000A63EB207E1F710E0C2E6D0E004C02197C7
:10010000FE010E947905C136D107C9F70E9431036B
:100110000C9484050C940000833081F028F4813025
:1001200099F08230A1F008958730A9F08830B9F0B5
:100130008430D1F4809180008F7D03C08091800055
:100140008F7780938000089584B58F7702C084B53F
:100150008F7D84BD08958091B0008F7703C080911A
:10016000B0008F7D8093B00008951F93CF93DF93ED
:10017000282F30E0F901E255FF4F8491F901E6564E
:10018000FF4FD491F901EA57FF4FC491CC23C1F03E
:10019000162F81110E948C00EC2FF0E0EE0FFF1F54
:1001A000E458FF4FA591B4919FB7F894111104C082
:1001B0008C91D095D82302C0EC91DE2BDC939FBFAD
:1001C000DF91CF911F9108953FB7F8948091450139
:1001D00090914601A0914701B091480126B5A89B96
:1001E00005C02F3F19F00196A11DB11D3FBFBA2FC9
:1001F000A92F982F8827820F911DA11DB11DBC0129
:10020000CD0142E0660F771F881F991F4A95D1F7ED
:100210000895CF92DF92EF92FF920F931F93CF93A7
:10022000DF936C017A018B01C0E0D0E0CE15DF05D1
:1002300081F0D8016D918D01D601ED91FC91019075
:10024000F081E02DC6010995892B11F02196EECFA2
:100250007E01C701DF91CF911F910F91FF90EF9029
:10026000DF90CF900895089580E090E00895FC011C
:10027000538D448D252F30E0842F90E0821B930B0B
:10028000541710F0CF96089501970895FC01918DB1
:10029000828D981761F0828DDF01A80FB11D5D96E8
:1002A0008C91928D9F5F9F73928F90E008958FEF56
:1002B0009FEF0895FC01918D828D981731F0828D0A
:1002C000E80FF11D858D90E008958FEF9FEF089561
:1002D000FC01918D228D892F90E0805C9F4F821BC5
:1002E00091098F739927089589E491E00E9468012C
:1002F00021E0892B09F420E0822F0895FC01848DF0
:10030000DF01A80FB11DA35ABF4F2C91848D90E03F
:1003100001968F739927848FA689B7892C93A0891A
:10032000B1898C91837080648C93938D848D9813A4
:1003300006C00288F389E02D80818F7D8083089537
:10034000EF92FF920F931F93CF93DF93EC0181E025
:10035000888F9B8D8C8D981305C0E889F9898081E1
:1003600085FD26C0F62E0B8D10E00F5F1F4F0F731B
:100370001127E02E8C8DE8120CC00FB607FCFACFC7
:10038000E889F989808185FFF5CFCE010E947E0141
:10039000F1CF8B8DFE01E80FF11DE35AFF4FF08284
:1003A0009FB7F8940B8FEA89FB89808180620AC02D
:1003B0009FB7F894EE89FF896083E889F989808185
:1003C0008370806480839FBF81E090E0DF91CF9154
:1003D0001F910F91FF90EF900895CF93DF93EC0161
:1003E000888D8823C9F0EA89FB89808185FD05C055
:1003F000A889B9898C9186FD0FC00FB607FCF5CF8F
:10040000808185FFF2CFA889B9898C9185FFEDCFD6
:10041000CE010E947E01E7CFDF91CF91089580E069
:1004200090E0892B29F00E94740181110C94000046
:100430000895009769F0FC0101900020E9F73197D9
:10044000AF01481B590BBC0189E491E00C940901F0
:1004500080E090E008958F929F92AF92BF920F93A9
:100460001F93CF93DF93CDB7DEB7A1970FB6F89464
:10047000DEBF0FBECDBF19A2423008F44AE08E01A4
:100480000F5D1F4F842E912CA12CB12CA50194013E
:100490000E945705E62FB901CA0101501109EA303F
:1004A00014F4E05D01C0E95CD801EC93232B242B0C
:1004B000252B61F7C8010E941902A1960FB6F89486
:1004C000DEBF0FBECDBFDF91CF911F910F91BF90C7
:1004D000AF909F908F900895CF92DF92EF92FF920E
:1004E000CF93DF936B017C016DE289E491E00E9480
:1004F000A001EC0166277727CB016C197D098E09D5
:100500009F094AE00E942B028C0F9D1FDF91CF9123
:10051000FF90EF90DF90CF9008950E947F051F928B
:100520000F920FB60F9211242F933F938F939F93A7
:10053000AF93BF938091410190914201A0914301FB
:10054000B09144013091400123E0230F2D3720F476
:100550000196A11DB11D05C026E8230F0296A11D1D
:10056000B11D209340018093410190934201A093DB
:100570004301B09344018091450190914601A091BF
:100580004701B09148010196A11DB11D809345011D
:1005900090934601A0934701B0934801BF91AF915A
:1005A0009F918F913F912F910F900FBE0F901F90B1
:1005B00018951F920F920FB60F9211242F933F930D
:1005C0004F935F936F937F938F939F93AF93BF935B
:1005D000EF93FF9389E491E00E947E01FF91EF91F8
:1005E000BF91AF919F918F917F916F915F914F914B
:1005F0003F912F910F900FBE0F901F9018951F9253
:100600000F920FB60F9211242F938F939F93EF9316
:10061000FF93E0915901F0915A018081E0915F01CF
:10062000F091600182FD12C09081809162018F5F24
:100630008F7320916301821751F0E0916201F0E025
:10064000E75BFE4F958F8093620101C08081FF912F
:10065000EF919F918F912F910F900FBE0F901F9050
:100660001895789484B5826084BD84B5816084BD1A
:1006700085B5826085BD85B5816085BD80916E0040
:10068000816080936E001092810080918100826071
:1006900080938100809181008160809381008091AE
:1006A00080008160809380008091B100846080939D
:1006B000B1008091B00081608093B00080917A0099
:1006C000846080937A0080917A00826080937A00BF
:1006D00080917A00816080937A0080917A008068AE
:1006E00080937A001092C100E0915901F0915A0173
:1006F00082E08083E0915501F09156011082E091F3
:100700005701F09158018FEC808310926101E091C4
:100710005D01F0915E0186E08083E0915B01F091E4
:100720005C01808180618083E0915B01F0915C01DC
:10073000808188608083E0915B01F0915C01808121
:1007400080688083E0915B01F0915C0180818F7D06
:100750008083E7EAF0E02491E3E9F0E084918823E4
:1007600099F090E0880F991FFC01E859FF4FA5917F
:10077000B491FC01E458FF4F859194918FB7F894A0
:10078000EC91E22BEC938FBFCDE9D0E0FE014491D8
:1007900009E810E0F80184918823C9F090E0880FFF
:1007A000991FFC01E859FF4F25913491FC01E45851
:1007B000FF4FA591B4915FB7F894F9019081842F10
:1007C0008095982390838C91842B8C935FBF60E0FD
:1007D0008DE00E94B50081E090E090933F0180930E
:1007E0003E0110923D0110923C0110923301109293
:1007F00032011092310110923001109239011092A1
:100800003801109237011092360110923501109282
:10081000340110923B0110923A0121EB822E20E02C
:10082000922EAA24A394B12C0E94E4002B013C0137
:100830009AE0C92ED12CE12CF12C0E94E400DC01BD
:10084000CB0184199509A609B709883E9340A105F3
:10085000B10598F3F1E0CF1AD108E108F10828EECC
:10086000420E23E0521E611C711CC114D104E1042C
:10087000F10419F7F4018491FE01E490F801F49079
:10088000FF20A1F081110E948C00EF2DF0E0EE0F0F
:10089000FF1FEE58FF4FA591B4918C918E2121E05E
:1008A00090E009F420E0E22EF92E02C0E12CF12CB8
:1008B00060913E0170913F016E157F0511F1072E89
:1008C000000C880B990B97FF03C00E946C0203C0B9
:1008D0004AE00E942B0282E191E00E941902B701D6
:1008E0000F2C000C880B990B97FF03C00E946C0221
:1008F00003C04AE00E942B0287E191E00E941902A6
:1009000091C0E114F10421F580913C0190913D01E9
:100910000A9690933D0180933C01893E93400CF4EC
:1009200081C080913A0190913B01019709F081C00B
:100930008091380190913901019709F47AC060E003
:100940008DE00E94B50010923B0110923A0171C0F7
:1009500080913201909133010A96909333018093F4
:100960003201813D974024F0B0923701A0923601C8
:1009700010923D0110923C01109239011092380101
:1009800080913C0190913D01893E93400CF44AC016
:100990008091380190913901019709F443C0809109
:1009A000300190913101892B29F5C0903401D0900C
:1009B0003501F1E0CF16D104E9F4D0923101C092B3
:1009C000300161E08DE00E94B5008AE191E00E9473
:1009D000190287E191E00E941902109237011092EA
:1009E00036011092350110923401D0923B01C09231
:1009F0003A0110C0109231011092300160E08DE098
:100A00000E94B50084E291E00E94190287E191E022
:100A10000E94190210923D0110923C01B0923901DE
:100A2000A0923801F0923F01E0923E010E940F0235
:100A3000FBCE80913601909137018130910509F00C
:100A4000A7CF909335018093340110923301109217
:100A5000320196CFE9E4F1E01382128288EE93E04E
:100A6000A0E0B0E084839583A683B78384E091E01F
:100A70009183808385EC90E09587848784EC90E077
:100A80009787868780EC90E0918B808B81EC90E05B
:100A9000938B828B82EC90E0958B848B86EC90E03C
:100AA000978B868B118E128E138E148E0895A1E271
:100AB0001A2EAA1BBB1BFD010DC0AA1FBB1FEE1FD8
:100AC000FF1FA217B307E407F50720F0A21BB30B23
:100AD000E40BF50B661F771F881F991F1A9469F79F
:100AE00060957095809590959B01AC01BD01CF01FB
:100AF0000895EE0FFF1F0590F491E02D099481E019
:0C0B000090E0F8940C948405F894FFCF6A
:100B0C0000000000A00109013701ED016801460158
:100B1C005A015F746F5F000D0A002E2E2E2E2E2EA2
:100B2C002E4F4E002E2E2E2E2E2E2E2E4F464600A3
:00000001FF
