:100000000C9462000C948A000C948A000C948A0070
:100010000C948A000C948A000C948A000C948A0038
:100020000C948A000C948A000C948A000C948A0028
:100030000C948A000C948A000C948A000C948A0018
:100040000C9449020C948A000C94B9020C9493020B
:100050000C948A000C948A000C948A000C948A00F8
:100060000C948A000C948A000000000024002700F1
:100070002A000000000023002600290000000000E4
:10008000250028002B0004040404040404040202D4
:100090000202020203030303030301020408102007
:1000A0004080010204081020010204081020000012
:1000B0000008000201000003040700000000000027
:1000C0000000EC0311241FBECFEFD8E0DEBFCDBF90
:1000D00011E0A0E0B1E0E0E9F8E002C005900D9287
:1000E000A631B107D9F721E0A6E1B1E001C01D9228
:1000F000AE3BB207E1F710E0C2E6D0E004C02197C2
:10010000FE010E943B04C136D107C9F70E94EB02F1
:100110000C9446040C940000833081F028F4813064
:1001200099F08230A1F008958730A9F08830B9F0B5
:100130008430D1F4809180008F7D03C08091800055
:100140008F7780938000089584B58F7702C084B53F
:100150008F7D84BD08958091B0008F7703C080911A
:10016000B0008F7D8093B00008951F93CF93DF93ED
:10017000282F30E0F901E255FF4F8491F901E6564E
:10018000FF4FD491F901EA57FF4FC491CC23C1F03E
:10019000162F81110E948C00EC2FF0E0EE0FFF1F54
:1001A000E458FF4FA591B4919FB7F894111104C082
:1001B0008C91D095D82302C0EC91DE2BDC939FBFAD
:1001C000DF91CF911F910895CF92DF92EF92FF922E
:1001D0000F931F93CF93DF936C017A018B01C0E0E3
:1001E000D0E0CE15DF0581F0D8016D918D01D601EB
:1001F000ED91FC910190F081E02DC6010995892BCC
:1002000011F02196EECF7E01C701DF91CF911F91B2
:100210000F91FF90EF90DF90CF900895089580E0C8
:1002200090E00895FC01538D448D252F30E0842FFC
:1002300090E0821B930B541710F0CF96089501970E
:100240000895FC01918D828D981761F0828DDF01F8
:10025000A80FB11D5D968C91928D9F5F9F73928FB9
:1002600090E008958FEF9FEF0895FC01918D828DAE
:10027000981731F0828DE80FF11D858D90E008957B
:100280008FEF9FEF0895FC01918D228D892F90E0D3
:10029000805C9F4F821B91098F739927089581E29B
:1002A00091E00E94430121E0892B09F420E0822F94
:1002B0000895FC01848DDF01A80FB11DA35ABF4F23
:1002C0002C91848D90E001968F739927848FA68955
:1002D000B7892C93A089B1898C91837080648C93A9
:1002E000938D848D981306C00288F389E02D808158
:1002F0008F7D80830895EF92FF920F931F93CF938A
:10030000DF93EC0181E0888F9B8D8C8D981305C065
:10031000E889F989808185FD26C0F62E0B8D10E0D5
:100320000F5F1F4F0F731127E02E8C8DE8120CC04A
:100330000FB607FCFACFE889F989808185FFF5CFF0
:10034000CE010E945901F1CF8B8DFE01E80FF11D06
:10035000E35AFF4FF0829FB7F8940B8FEA89FB892D
:10036000808180620AC09FB7F894EE89FF8960831C
:10037000E889F98980818370806480839FBF81E0F0
:1003800090E0DF91CF911F910F91FF90EF90089532
:10039000CF93DF93EC01888D8823C9F0EA89FB892C
:1003A000808185FD05C0A889B9898C9186FD0FC023
:1003B0000FB607FCF5CF808185FFF2CFA889B989F8
:1003C0008C9185FFEDCFCE010E945901E7CFDF91DF
:1003D000CF91089580E090E0892B29F00E944F0191
:1003E00081110C9400000895009769F0FC010190C0
:1003F0000020E9F73197AF01481B590BBC0181E29E
:1004000091E00C94E40080E090E008958F929F9238
:10041000AF92BF920F931F93CF93DF93CDB7DEB709
:10042000A1970FB6F894DEBF0FBECDBF19A2423020
:1004300008F44AE08E010F5D1F4F842E912CA12CF1
:10044000B12CA50194010E941904E62FB901CA013B
:1004500001501109EA3014F4E05D01C0E95CD801F3
:10046000EC93232B242B252B61F7C8010E94F40168
:10047000A1960FB6F894DEBF0FBECDBFDF91CF912E
:100480001F910F91BF90AF909F908F9008950E9401
:1004900041041F920F920FB60F9211242F933F9396
:1004A0008F939F93AF93BF9380911D0190911E01F5
:1004B000A0911F01B091200130911C0123E0230F76
:1004C0002D3720F40196A11DB11D05C026E8230F8C
:1004D0000296A11DB11D20931C0180931D019093D4
:1004E0001E01A0931F01B0932001809118019091EB
:1004F0001901A0911A01B0911B010196A11DB11D16
:100500008093180190931901A0931A01B0931B01D5
:10051000BF91AF919F918F913F912F910F900FBEFF
:100520000F901F9018951F920F920FB60F921124E3
:100530002F933F934F935F936F937F938F939F93EB
:10054000AF93BF93EF93FF9381E291E00E94590133
:10055000FF91EF91BF91AF919F918F917F916F919B
:100560005F914F913F912F910F900FBE0F901F9071
:1005700018951F920F920FB60F9211242F938F93FD
:100580009F93EF93FF93E0913101F09132018081CD
:10059000E0913701F091380182FD12C09081809185
:1005A0003A018F5F8F7320913B01821751F0E091E8
:1005B0003A01F0E0EF5DFE4F958F80933A0101C064
:1005C0008081FF91EF919F918F912F910F900FBE9E
:1005D0000F901F901895789484B5826084BD84B57F
:1005E000816084BD85B5826085BD85B5816085BD2E
:1005F00080916E00816080936E00109281008091E6
:10060000810082608093810080918100816080936D
:100610008100809180008160809380008091B10092
:1006200084608093B1008091B00081608093B000BD
:1006300080917A00846080937A0080917A00826051
:1006400080937A0080917A00816080937A00809113
:100650007A00806880937A001092C100E7EAF0E0A7
:100660002491E3E9F0E08491882399F090E0880FE9
:10067000991FFC01E859FF4FA591B491FC01E45882
:10068000FF4F859194918FB7F894EC91E22BEC9306
:100690008FBFCDE9D0E0FE01449109E810E0F801F8
:1006A00084918823C9F090E0880F991FFC01E859D4
:1006B000FF4F25913491FC01E458FF4FA591B4916F
:1006C0005FB7F894F9019081842F809598239083E7
:1006D0008C91842B8C935FBF60E08DE00E94B5000D
:1006E00060E083E00E94B500E0913101F0913201B9
:1006F00082E08083E0912D01F0912E011082E09143
:100700002F01F09130018FEC808310923901E0913C
:100710003501F091360186E08083E0913301F0915C
:100720003401808180618083E0913301F091340154
:10073000808188608083E0913301F0913401808171
:1007400080688083E0913301F091340180818F7D56
:10075000808391EBE92E90E0F92EF7018491FE0160
:10076000C490F801D490DD20A1F081110E948C008A
:10077000ED2DF0E0EE0FFF1FEE58FF4FA591B49165
:100780008C918C2131E020E009F430E0832F922F0E
:1007900002C080E090E090931701809316010197CA
:1007A00051F461E08DE00E94B5004AE061E070E044
:1007B00080E090E008C060E08DE00E94B5004AE073
:1007C00060E070E0CB010E94060282E191E00E94AD
:1007D000F4010E94EA01C1CFE1E2F1E0138212824A
:1007E00088EE93E0A0E0B0E084839583A683B7838E
:1007F00084E091E09183808385EC90E09587848705
:1008000084EC90E09787868780EC90E0918B808BDA
:1008100081EC90E0938B828B82EC90E0958B848BC3
:1008200086EC90E0978B868B118E128E138E148E31
:100830000895A1E21A2EAA1BBB1BFD010DC0AA1F21
:10084000BB1FEE1FFF1FA217B307E407F50720F039
:10085000A21BB30BE40BF50B661F771F881F991FB4
:100860001A9469F760957095809590959B01AC01FD
:10087000BD01CF010895EE0FFF1F0590F491E02D0B
:10088000099481E090E0F8940C944604F894FFCF2A
:10089000000000007B01E4001201C80143012101B6
:0608A00035010D0A000005
:00000001FF
